:100AAD005000760000000002FF0EA600000001F4C9
:030ABD00FF0571C1
:100CEA00E4FFEF75F008A42477F582E43400F58375
:100CFA00E0FCA3E04C6017EF75F008A42477F582B6
:100D0A00E43400F58374FFF5F01204778037EF7549
:100D1A00F008A42479F582E43400F583E0FCA3E02A
:100D2A00FDEF75F008A42477F582E43400F583EC2E
:100D3A00F0A3EDF0EF75F008A42476F582E4340010
:0A0D4A00F5837401F00FEFB4029876
:010D5400227C
:100E1E00900076E0601290007BA3E0FAA3E0F91256
:100E2E00049DE4900076F02290007EE06011900028
:100E3E0083A3E0FAA3E0F912049DE490007EF02271
:100AC0004A005A00000000000000000000410064DD
:100AD00000410042004100410041005700410058E0
:070AE0000041005900C100B4
:100E4E0075985053877F438E15AB07AA06E4F9F8C1
:100E5E00FF7E807D517C01120D99E47B20FAF9F81A
:0D0E6E00120D99EFF404F59CD2ACD2AF2226
:080003008F993099FDC299228A
:100F3B001203DCFF600C120003740129F9E43AFA86
:030F4B0080EE2213
:0B0E7B00900066EBF0A3EAF0A3E9F0A2
:100E8600E4FE900066E0FBA3E0FAA3E0F98E82752B
:0F0E960083001203F5FF1200030EEEC39D40E32D
:010EA500222A
:0A0F9B00E4900064F0900042F022A0
:100EC30090004D7410F0A37421F0E4A3F0A37431E7
:0C0ED300F07B017A00794D7D04020E7B5B
:030023000208BE12
:1008BE00C0E0C0F0C083C082C0D075D000C000C000
:1008CE0001C002C003C004C005C006C007209803C3
:1008DE000209EF900064E0FF2443F582E43400F552
:1008EE0083E599F0900042E014603514604E147068
:1008FE00030209841470030209B724046003020979
:10090E00EA74432FF582E43400F583E0FF6410604F
:10091E00030209EA900057EFF09000647401804FD3
:10092E00900064E02443F582E43400F583E0FF9008
:10093E000057E02FF090006474028033900064E062
:10094E002443F582E43400F583E0FF900058F07004
:10095E000E9000647403F090004204F00209ED90D2
:10096E000059E4F0900057E02FF09000647403F00B
:10097E00900042F08069900064E02443F582E434F4
:10098E0000F583E0FF900057E02FF0900064E00444
:10099E00F0900059E004F0900058E0FFA3E06F7073
:1009AE003E9000427404F08036900064E02443F5DB
:1009BE0082E43400F583E0FF900057E06F60028020
:1009CE001B784D7C007D017B017A0079437E007F90
:1009DE000A1203B69000417401F08000120F9BC200
:1009EE0098D007D006D005D004D003D002D001D0C5
:0C09FE0000D0D0D082D083D0F0D0E03206
:10076C0090006574FFF0900041E070030208BD90AA
:10077C00004EE0FF900065F0FD90004D7410F0A36A
:10078C007406F090004DE02406900057F0ED249094
:10079C00602B147003020868244160030208B2E461
:1007AC0090004FF0A3E024FF9200900057E09000DF
:1007BC0050F07B017A00794D7D040208AD90004F1A
:1007CC00E064027076A3E0704990005CE0900087D2
:1007DC00F090005DE0900088F090005EE090008961
:1007EC00F090005FE090008AF0900060E090008B49
:1007FC00F0900061E090008CF0900062E090008D31
:10080C00F07B017A007986120A0A9000507401F08C
:10081C00802B900050E0FFC36480948A505DA3E06D
:10082C00FEEFFD3395E0FC745A2DF58274003CF517
:10083C0083EEF09000507402F08002803E90004FE6
:10084C007401F0A3E004FF900057E02FF0E090005B
:10085C0051F07B017A00794D7D05804590004FE089
:10086C00B40118A3E0FF3395E0FE745A2FF582749F
:10087C00003EF583E0900050F08009120EC3E49026
:10088C000041F02290004F7401F0A3E004FF9000AF
:10089C0057E02FF0E0900051F07B017A00794D7D0C
:1008AC0005120E7B8003120EC3E4900041F0020788
:0108BC0072C9
:0108BD002218
:070FA50012076C2000FA2284
:0B0AE700480086141003160C000002EB
:0F0F6000EF7F08A2E092A6D2A5C2A5C313DFF4CB
:010F6F00225F
:0F0F70007F08C313A2A692E7D2A5C2A5DFF4FFA4
:010F7F00224F
:030EFB00A3E0FD74
:100EFE00C2A7C2A5D2A7120F60AF05120F60D2A56E
:030F0E00C2A72255
:10000E00C2A7C2A5D2A7EF4401FF120F60120F7054
:04001E00D2A5C2A7FE
:0100220022BB
:0B0A0A00900066EBF0A3EAF0A3E9F017
:100A1500E4FF900066E0FBA3E0FAA3E0F98F82759E
:100A250083001203F5FE75F00A84FDEE75F00A8465
:100A350074692FF582E43400F583E5F0F0EDC454D4
:100A4500F0FE74692FF582E43400F583E02EF00F93
:100A5500EFB408BEE4FD7F8E120EFE7D807F80120E
:100A65000EFE7DA97F90120EFE90006AE0FD7F8C40
:100A7500120EFE7F88120EFB7F86120EFB90007011
:100A8500E0FD7F8A120EFE90006DE0FD7F84120E60
:100A9500FEA3E0FD7F82120EFEA3E0FD7F80120E15
:080AA500FE7D807F8E020EFE33
:0B0C660090006BEBF0A3EAF0A3E9F0B4
:100C71007F8C12000E90006FEFF07F8812000EA3A0
:100C8100EFF07F8612000EA3EFF07F8412000EA317
:100C9100EFF07F8212000EA3EFF07F8012000EEFC3
:100CA100547FA3F07F8A12000EA3EFF0E4FF746E6D
:100CB1002FF582E43400F583E0FEC4540FFDEE54B9
:100CC1000FFE90006BE0FBA3E0FAA3E0F98F8275C1
:100CD1008300EE120455ED75F00AA48F827583002E
:080CE1001204220FEFB408C653
:010CE90022E8
:0C0F8E007F8112000EEF30E703120A0A08
:010F9A002234
:100D5500000000010000000200000004000000087F
:100D6500000000100000002000000040000000808E
:100D7500000001000000020000000400000008005F
:100D8500000010000000200000004000000080006E
:040D9500000000005A
:100AF2006040000100000000000000000000000053
:100B020000000000000000000000000000000000E3
:100B120000000000000000000000000000000000D3
:100B220000000000000000000000000000000000C3
:080B320000000000410000007A
:0E0B4700900065EFF0A3EBF0A3EAF0A3E9F055
:100B5500E4A3F0900065E025E025E02455F582E466
:100B6500340DF58312048DE4FDC2B1EE3392B0D29B
:100B7500B1EF25E0FFEE33FE0DEDB410ECE490008F
:100B85006AF090006AE0FFC394025039900066E075
:100B9500FBA3E0FAA3E0F9A3E075F002A42FF58228
:100BA500E435F0F5831203F5FFE4FDC2B1EFF4334C
:100BB50092B0D2B1EF25E0FF0DEDB408EE90006ADA
:100BC500E004F080BD900069E004F0E06402708309
:040BD500C2B2D2B224
:010BD90022F9
:100F4E00E4FFC2B1C2B0D2B10FEFB440F5C2B2D21B
:010F5E00B2E0
:010F5F00226F
:100EA600900000E004F0540FF0E075F004A4240173
:0D0EB600F9740035F0FA7B01E0FF020B47F4
:1005710078677C007D017BFF7A0D79957E007F0491
:100581001203B6E4FD7B017A007986120C669000B5
:100591008CE05401FD90008AE0FF75F00A84900020
:1005A10067F0EF75F00A84A3E5F0F090008BE0FFAF
:1005B10075F00A84900069F0EF75F00A84A3E5F004
:1005C100F0E4FC900067E075F010A42CF582E435AE
:1005D100F0F583E5822426F582E5833400F583E492
:1005E10093FF900065F0900068E075F010A42CF581
:1005F10082E435F0F583E5822426F582E583340033
:10060100F583E493900066F0E0FE7B0778070880AD
:1006110002C313D8FC900066F054014FFFEC25E0B3
:1006210025E02401F582E43400F583EFF00CECB40D
:100631001091E4FC900068E075F010A42CF582E4C0
:1006410035F0F583E5822426F582E5833400F583D0
:10065100E493900065F0ED75F010A4FFEC7A002FA3
:10066100FFEA35F0FE74C62FF58274003EF583E48F
:1006710093FF900066F0900065E025E0FEEF5401E5
:100681004EFFEC25E025E02402F582E43400F583F9
:10069100EFF00CECB4109DE4FC900069E075F010F3
:1006A100A42CF582E435F0F583E5822426F582E574
:1006B100833400F583E493900065F0ED75F010A4A8
:1006C100FFEC7A002FFFEA35F0FE74C62FF5827435
:1006D100003EF583E493FF900066F0900065E0131F
:1006E1001313541FFEEF54804EFFEC25E025E02448
:1006F10003F582E43400F583EFF00CECB4109AE4D6
:10070100FC90006AE075F010A42CF582E435F0F558
:1007110083E5822426F582E5833400F583E4939012
:100721000065F0900069E075F010A42CF582E435C5
:10073100F0F583E5822426F582E5833400F583E430
:1007410093900066F0E0C43354C0FF900065E0135D
:1007510013543F4FFFEC25E025E02404F582E434F7
:0A07610000F583EFF00CECB41097E4
:01076B00226B
:1000260078FCCCCCCCCCCCCCCCCCCCCCCCCCFC7852
:1000360010307070303030303030303030307878CA
:1000460078FCCCCC0C0C181830306060C0C0FCFCBE
:1000560078FCCC0C0C0C0C7C7C0C0C0C0CCCCC78F2
:1000660048CCCCCCCCCCCCFC7C0C0C0C0C0C0C0CAE
:1000760078FCC0C0C0C0C0F87C0C0C0C0CCCCC7892
:1000860078FCC0C0C0C0C0F8FCCCCCCCCCCCCC7802
:1000960078FCCCCCCC0C0C0C0C0C0C0C0C0C0C0CFE
:1000A60078FCCCCCCCCCCCFCFCCCCCCCCCCCFC7872
:1000B60078FCCCCCCCCCCCFC7C0C0C0C0CCCFC78E2
:1000C600000000FFFFFF00000000FFFFFF00000030
:1000D6000000FFFFFF000000000000FFFFFF000020
:1000E600000000000000000000000000808000000A
:1000F60000000040A0400E1F3330303030331F0E5A
:1001060000000000000000000000000000000000E9
:1001160018181F3030601F181818FF000000000064
:100126000000FEC0C0C0FCC0C0C0FFC0C0C0C0C090
:10013600001F1818181F1818181F1818303060C01C
:1001460000FC0C0C0CFC0C0C0CFC0C0C0C0C3C18E9
:10015600001F18181818181F1818181818181F181C
:1001660000F81818181818F8181818181818F81881
:1001760000007E666766667E666666667E66000068
:100186000C0C0C0CFF0C0C0CCC6C6C0C0C0C3C18FA
:100196000006060C183060DF0606060C0C183160E7
:1001A60060603030180C06F3303030303030E0C04C
:1001B600001F181F181F01191F31611F01017F0041
:1001C60000F818F818F88080FC8080F88080FE001F
:1001D60033337F33333F33333F3333FF063361C328
:1001E600007EE666667E6666667E66E6C6C69E0C29
:1001F600000000000000003F1F000000000000009B
:1002060000000000000010F8FC00000000000000E4
:100216000000003F1F0000000000007F3F000000BC
:10022600000010F8FC000000000018FCFE000000B2
:1002360000001F0F0000000F070000007F3F0000B6
:100246000010F8FC000020F0F800000CFEFF000093
:1002560000007F66666666666C6C7870607F60001C
:100266000000FE6666666666663E060606FE0600D2
:10027600007F030303033F060606060C0C0CFF0073
:1002860000FE00000000F818181818181818FF00CB
:100296000301000000FF000006060C0C1830600089
:1002A6000080C0C000FF00006030180C0C0606007D
:1002B600001F18181818181F1818181818181F18BB
:1002C60000F81818181818F8181818181818F81820
:1002D60000000000000000FEFE000000000000001C
:0E0F8000537973496E6974204F4B210D0A009E
:0C0B3A0041008F0041008E00410090003F
:100EDF007F807E25120E4E120F117B017A007986CC
:0C0EEF00120F8E7BFF7A0F7980020F3B00
:100F2700120F4E75B0FF120EDF75B0FF120FA5122C
:040F37000E1E80F515
:03000B00020DDD06
:100DDD00C0E0C0F0C083C082C0D075D000C000C0DC
:100DED0001C002C003C004C005C006C007758ACD8E
:100DFD00758CD4120CEAD007D006D005D004D003E0
:100E0D00D002D001D000D0D0D082D083D0F0D0E0AD
:010E1D0032A2
:100F11005389F1438901438E80758ACD758CD4D272
:060F21008CD2A9D2AF2220
:03000000020BDA16
:0C0BDA00787FE4F6D8FD758120020C2124
:1002E600E709F608DFFA8046E709F208DFFA803EFA
:1002F60088828C83E709F0A3DFFA8032E309F608E7
:10030600DFFA8078E309F208DFFA807088828C834E
:10031600E309F0A3DFFA806489828A83E0A3F60802
:10032600DFFA805889828A83E0A3F208DFFA804CDC
:1003360080D280FA80C680D4806980F280338010B3
:1003460080A680EA809A80A880DA80E280CA80331C
:1003560089828A83ECFAE493A3C8C582C8CCC58394
:10036600CCF0A3C8C582C8CCC583CCDFE9DEE78064
:100376000D89828A83E493A3F608DFF9ECFAA9F0E3
:10038600EDFB2289828A83ECFAE0A3C8C582C8CC39
:10039600C583CCF0A3C8C582C8CCC583CCDFEADE52
:1003A600E880DB89828A83E493A3F208DFF980CCB4
:1003B60088F0EF60010E4E60C388F0ED2402B404AD
:1003C6000050B9F582EB2402B4040050AF23234554
:0603D60082239003367340
:1003DC00BB010689828A83E0225002E722BBFE021F
:0903EC00E32289828A83E4932252
:1003F500BB010CE58229F582E5833AF583E02250BD
:1004050006E92582F8E622BBFE06E92582F8E22206
:0D041500E58229F582E5833AF583E4932220
:10042200BB010FF8E58229F582E5833AF583E028DE
:10043200F0225009C58229F8E58226F622BBFE0980
:10044200C58229F8E22582F222F8EA2583F583E9BA
:03045200932822CA
:10045500F8BB010DE58229F582E5833AF583E8F0DD
:10046500225006E92582C8F622BBFE05E92582C889
:02047500F22271
:10047700C5F0F8A3E028F0C5F0F8E5821582700210
:060487001583E038F022AD
:100D9900C2D5E830E70FB2D5E4C39BFBE49AFAE485
:100DA90099F9E498F8EC30E717B2D5120DCF12048F
:100DB900DFE4C39BFBE49AFAE499F9E498F8800329
:100DC9001204DF30D50DE4C39FFFE49EFEE49DFDD0
:040DD900E49CFC2278
:10048D00E493FC740193FD740293FE740393FF22B5
:06049D008A838982E473EA
:100BE600020F27E493A3F8E493A34003F68001F2EF
:100BF60008DFF48029E493A3F85407240CC8C33310
:100C0600C4540F4420C8834004F456800146F6DFDE
:100C1600E4800B0102040810204080900AADE47EB7
:100C2600019360BCA3FF543F30E509541FFEE493D3
:100C3600A360010ECF54C025E060A840B8E493A39A
:100C4600FAE493A3F8E493A3C8C582C8CAC583CAC5
:100C5600F0A3C8C582C8CAC583CADFE9DEE780BE7D
:010B460000AE
:1004A30075F008758200EF2FFFEE33FECD33CDCC10
:1004B30033CCC58233C5829BED9AEC99E582984093
:1004C3000CF582EE9BFEED9AFDEC99FC0FD5F0D670
:1004D300E4CEFBE4CDFAE4CCF9A88222B800C1B99A
:1004E3000059BA002DEC8BF084CFCECDFCE5F0CBD8
:1004F300F97818EF2FFFEE33FEED33FDEC33FCEB11
:1005030033FB10D703994004EB99FB0FD8E5E4F9CB
:10051300FA227818EF2FFFEE33FEED33FDEC33FCB8
:10052300C933C910D7059BE99A4007EC9BFCE99AAC
:10053300F90FD8E0E4C9FAE4CCFB2275F010EF2FF1
:10054300FFEE33FEED33FDCC33CCC833C810D707F1
:100553009BEC9AE899400AED9BFDEC9AFCE899F82C
:0E0563000FD5F0DAE4CDFBE4CCFAE4C8F922BF
:00000001FF
