:100CBB005800650000000002FF0E810000000002DA
:0B0CCB00FF0F9E00000001F4FF057108
:010F9E002230
:100C5000E4FFEF75F008A42466F582E43400F58320
:100C6000E0FCA3E04C6017EF75F008A42466F58261
:100C7000E43400F58374FFF5F01204778037EF75E4
:100C8000F008A42468F582E43400F583E0FCA3E0D6
:100C9000FDEF75F008A42466F582E43400F583ECDA
:100CA000F0A3EDF0EF75F008A42465F582E43400BC
:0A0CB000F5837401F00FEFB4039810
:010CBA002217
:100D1900900065E0601290006AA3E0FAA3E0F9127E
:100D2900049DE4900065F02290006DE0601290004F
:100D390072A3E0FAA3E0F912049DE490006DF02299
:100D4900900075E0601190007AA3E0FAA3E0F9122F
:080D5900049DE4900075F022F6
:100CD6004A005A00000000000000000000410064C5
:100CE60000410042004100410041005700410058C8
:070CF6000041005900C1009C
:100E2A0075985053877F438E15AB07AA06E4F9F8E5
:100E3A00FFFE7D777C01120DA5E47B20FAF9F812FA
:0C0E4A000DA5EFF404F59CD2ACD2AF2251
:080003008F993099FDC299228A
:100F2D001203DCFF600C120003740129F9E43AFA94
:030F3D0080EE2221
:0B0E560090007EEBF0A3EAF0A3E9F0AF
:100E6100E4FE90007EE0FBA3E0FAA3E0F98E827538
:0F0E710083001203F5FF1200030EEEC39D40E352
:010E8000224F
:0A0F8D00E4900064F0900042F022AE
:100E9E0090004D7410F0A37421F0E4A3F0A374310C
:0C0EAE00F07B017A00794D7D04020E56A5
:030023000208BE12
:1008BE00C0E0C0F0C083C082C0D075D000C000C000
:1008CE0001C002C003C004C005C006C007209803C3
:1008DE000209EF900064E0FF2443F582E43400F552
:1008EE0083E599F0900042E014603514604E147068
:1008FE00030209841470030209B724046003020979
:10090E00EA74432FF582E43400F583E0FF6410604F
:10091E00030209EA900057EFF09000647401804FD3
:10092E00900064E02443F582E43400F583E0FF9008
:10093E000057E02FF090006474028033900064E062
:10094E002443F582E43400F583E0FF900058F07004
:10095E000E9000647403F090004204F00209ED90D2
:10096E000059E4F0900057E02FF09000647403F00B
:10097E00900042F08069900064E02443F582E434F4
:10098E0000F583E0FF900057E02FF0900064E00444
:10099E00F0900059E004F0900058E0FFA3E06F7073
:1009AE003E9000427404F08036900064E02443F5DB
:1009BE0082E43400F583E0FF900057E06F60028020
:1009CE001B784D7C007D017B017A0079437E007F90
:1009DE000A1203B69000417401F08000120F8DC20E
:1009EE0098D007D006D005D004D003D002D001D0C5
:0C09FE0000D0D0D082D083D0F0D0E03206
:10076C0090007D74FFF0900041E070030208BD9092
:10077C00004EE0FF90007DF0FD90004D7410F0A352
:10078C007406F090004DE02406900057F0ED249094
:10079C00602B147003020868244160030208B2E461
:1007AC0090004FF0A3E024FF9200900057E09000DF
:1007BC0050F07B017A00794D7D040208AD90004F1A
:1007CC00E064027076A3E0704990005CE090008FCA
:1007DC00F090005DE0900090F090005EE090009151
:1007EC00F090005FE0900092F0900060E090009339
:1007FC00F0900061E0900094F0900062E090009521
:10080C00F07B017A00798E120A0A9000507401F084
:10081C00802B900050E0FFC36480948A505DA3E06D
:10082C00FEEFFD3395E0FC745A2DF58274003CF517
:10083C0083EEF09000507402F08002803E90004FE6
:10084C007401F0A3E004FF900057E02FF0E090005B
:10085C0051F07B017A00794D7D05804590004FE089
:10086C00B40118A3E0FF3395E0FE745A2FF582749F
:10087C00003EF583E0900050F08009120E9EE4904B
:10088C000041F02290004F7401F0A3E004FF9000AF
:10089C0057E02FF0E0900051F07B017A00794D7D0C
:1008AC0005120E568003120E9EE4900041F00207D2
:0108BC0072C9
:0108BD002218
:070F970012076C2000FA2292
:0B0CFD0048008E141003160C000002CB
:0F0F5200EF7F08A2E09285D286C286C313DFF438
:010F6100226D
:0F0F62007F08C313A28592E7D286C286DFF4FF11
:010F7100225D
:030EED00A3E0FD82
:100EF000C284C286D284120F52AF05120F52D2861C
:030F0000C2842286
:10000E00C284C286D284EF4401FF120F52120F62D5
:04001E00D286C28440
:0100220022BB
:0B0A0A0090007EEBF0A3EAF0A3E9F0FF
:100A1500E4FF90007EE0FBA3E0FAA3E0F98F827586
:100A250083001203F5FE75F00A84FDEE75F00A8465
:100A350074812FF582E43400F583E5F0F0EDC454BC
:100A4500F0FE74812FF582E43400F583E02EF00F7B
:100A5500EFB408BEE4FD7F8E120EF07D807F80121C
:100A65000EF07DA97F90120EF0900082E0FD7F8C44
:100A7500120EF07F88120EED7F86120EED90008823
:100A8500E0FD7F8A120EF0900085E0FD7F84120E56
:100A9500F0A3E0FD7F82120EF0A3E0FD7F80120E31
:080AA500F07D807F8E020EF04F
:0B0BCC00900083EBF0A3EAF0A3E9F037
:100BD7007F8C12000E900087EFF07F8812000EA323
:100BE700EFF07F8612000EA3EFF07F8412000EA3B2
:100BF700EFF07F8212000EA3EFF07F8012000EEF5E
:100C0700547FA3F07F8A12000EA3EFF0E4FF7486EF
:100C17002FF582E43400F583E0FEC4540FFDEE5453
:100C27000FFE900083E0FBA3E0FAA3E0F98F827543
:100C37008300EE120455ED75F00AA48F82758300C8
:080C47001204220FEFB408C6ED
:010C4F002282
:0C0F80007F8112000EEF30E703120A0A16
:010F8C002242
:100D61000000000100000002000000040000000873
:100D71000000001000000020000000400000008082
:100D81000000010000000200000004000000080053
:100D91000000100000002000000040000000800062
:040DA100000000004E
:040D080041000000A6
:0E0AAD0090007DEFF0A3EBF0A3EAF0A3E9F0D8
:100ABB00E4A3F090007DE025E025E02461F582E4DD
:100ACB00340DF58312048DE4FDC2B1EE3392B0D236
:100ADB00B1EF25E0FFEE33FE0DEDB410ECE490002A
:100AEB0082F0900082E0FFC39402503990007EE0C8
:100AFB00FBA3E0FAA3E0F9A3E075F002A42FF582C3
:100B0B00E435F0F5831203F5FFE4FDC2B1EFF433E6
:100B1B0092B0D2B1EF25E0FF0DEDB408EE9000825C
:100B2B00E004F080BD900081E004F0E0640270838B
:040B3B00C2B2D2B2BE
:010B3F002293
:100E8100900000E004F0540FF0E075F004A4240198
:0D0E9100F9740035F0FA7B01E0FF020AADB4
:100F4000E4FFC2B1C2B0D2B10FEFB440F5C2B2D229
:010F5000B2EE
:010F5100227D
:10057100787F7C007D017BFF7A0D79A17E007F046D
:100581001203B6E4FD7B017A00798E120BCC900048
:1005910094E05401FD900092E0FF75F00A84900010
:1005A1007FF0EF75F00A84A3E5F0F0900093E0FF8F
:1005B10075F00A84900081F0EF75F00A84A3E5F0EC
:1005C100F0E4FC90007FE075F010A42CF582E43596
:1005D100F0F583E5822426F582E5833400F583E492
:1005E10093FF90007DF0900080E075F010A42CF551
:1005F10082E435F0F583E5822426F582E583340033
:10060100F583E49390007EF0E0FE7B077807088095
:1006110002C313D8FC90007EF054014FFFEC25E09B
:1006210025E02401F582E43400F583EFF00CECB40D
:100631001091E4FC900080E075F010A42CF582E4A8
:1006410035F0F583E5822426F582E5833400F583D0
:10065100E49390007DF0ED75F010A4FFEC7A002F8B
:10066100FFEA35F0FE74C62FF58274003EF583E48F
:1006710093FF90007EF090007DE025E0FEEF5401B5
:100681004EFFEC25E025E02402F582E43400F583F9
:10069100EFF00CECB4109DE4FC900081E075F010DB
:1006A100A42CF582E435F0F583E5822426F582E574
:1006B100833400F583E49390007DF0ED75F010A490
:1006C100FFEC7A002FFFEA35F0FE74C62FF5827435
:1006D100003EF583E493FF90007EF090007DE013EF
:1006E1001313541FFEEF54804EFFEC25E025E02448
:1006F10003F582E43400F583EFF00CECB4109AE4D6
:10070100FC900082E075F010A42CF582E435F0F540
:1007110083E5822426F582E5833400F583E4939012
:10072100007DF0900081E075F010A42CF582E43595
:10073100F0F583E5822426F582E5833400F583E430
:100741009390007EF0E0C43354C0FF90007DE0132D
:1007510013543F4FFFEC25E025E02404F582E434F7
:0A07610000F583EFF00CECB41097E4
:01076B00226B
:1000260078FCCCCCCCCCCCCCCCCCCCCCCCCCFC7852
:1000360010307070303030303030303030307878CA
:1000460078FCCCCC0C0C181830306060C0C0FCFCBE
:1000560078FCCC0C0C0C0C7C7C0C0C0C0CCCCC78F2
:1000660048CCCCCCCCCCCCFC7C0C0C0C0C0C0C0CAE
:1000760078FCC0C0C0C0C0F87C0C0C0C0CCCCC7892
:1000860078FCC0C0C0C0C0F8FCCCCCCCCCCCCC7802
:1000960078FCCCCCCC0C0C0C0C0C0C0C0C0C0C0CFE
:1000A60078FCCCCCCCCCCCFCFCCCCCCCCCCCFC7872
:1000B60078FCCCCCCCCCCCFC7C0C0C0C0CCCFC78E2
:1000C600000000FFFFFF00000000FFFFFF00000030
:1000D6000000FFFFFF000000000000FFFFFF000020
:1000E600000000000000000000000000808000000A
:1000F60000000040A0400E1F3330303030331F0E5A
:1001060000000000000000000000000000000000E9
:1001160018181F3030601F181818FF000000000064
:100126000000FEC0C0C0FCC0C0C0FFC0C0C0C0C090
:10013600001F1818181F1818181F1818303060C01C
:1001460000FC0C0C0CFC0C0C0CFC0C0C0C0C3C18E9
:10015600001F18181818181F1818181818181F181C
:1001660000F81818181818F8181818181818F81881
:1001760000007E666766667E666666667E66000068
:100186000C0C0C0CFF0C0C0CCC6C6C0C0C0C3C18FA
:100196000006060C183060DF0606060C0C183160E7
:1001A60060603030180C06F3303030303030E0C04C
:1001B600001F181F181F01191F31611F01017F0041
:1001C60000F818F818F88080FC8080F88080FE001F
:1001D60033337F33333F33333F3333FF063361C328
:1001E600007EE666667E6666667E66E6C6C69E0C29
:1001F600000000000000003F1F000000000000009B
:1002060000000000000010F8FC00000000000000E4
:100216000000003F1F0000000000007F3F000000BC
:10022600000010F8FC000000000018FCFE000000B2
:1002360000001F0F0000000F070000007F3F0000B6
:100246000010F8FC000020F0F800000CFEFF000093
:1002560000007F66666666666C6C7870607F60001C
:100266000000FE6666666666663E060606FE0600D2
:10027600007F030303033F060606060C0C0CFF0073
:1002860000FE00000000F818181818181818FF00CB
:100296000301000000FF000006060C0C1830600089
:1002A6000080C0C000FF00006030180C0C0606007D
:1002B600001F18181818181F1818181818181F18BB
:1002C60000F81818181818F8181818181818F81820
:1002D60000000000000000FEFE000000000000001C
:100ED600EF1FAC0670011E4C600C00007D167C8076
:060EE600DCFEDDFC80EAE9
:010EEC0022E3
:0E0F7200537973496E6974204F4B210D0A00AC
:0C0D0C0041009700410096004100980053
:100EBA007F807E25120E2A120F037B017A00798E1B
:0C0ECA00120F807BFF7A0F7972020F2D4F
:100F1900120F4075B0FF120EBA75B0FF120F97127B
:040F29000D1980F529
:03000B00020DE9FA
:100DE900C0E0C0F0C083C082C0D075D000C000C0D0
:100DF90001C002C003C004C005C006C007758ACD82
:100E0900758CD4120C50D007D006D005D004D0036D
:100E1900D002D001D000D0D0D082D083D0F0D0E0A1
:010E29003296
:100F03005389F1438901438E80758ACD758CD4D280
:060F13008CD2A9D2AF222E
:03000000020B40B0
:0C0B4000787FE4F6D8FD758120020B8759
:1002E600E709F608DFFA8046E709F208DFFA803EFA
:1002F60088828C83E709F0A3DFFA8032E309F608E7
:10030600DFFA8078E309F208DFFA807088828C834E
:10031600E309F0A3DFFA806489828A83E0A3F60802
:10032600DFFA805889828A83E0A3F208DFFA804CDC
:1003360080D280FA80C680D4806980F280338010B3
:1003460080A680EA809A80A880DA80E280CA80331C
:1003560089828A83ECFAE493A3C8C582C8CCC58394
:10036600CCF0A3C8C582C8CCC583CCDFE9DEE78064
:100376000D89828A83E493A3F608DFF9ECFAA9F0E3
:10038600EDFB2289828A83ECFAE0A3C8C582C8CC39
:10039600C583CCF0A3C8C582C8CCC583CCDFEADE52
:1003A600E880DB89828A83E493A3F208DFF980CCB4
:1003B60088F0EF60010E4E60C388F0ED2402B404AD
:1003C6000050B9F582EB2402B4040050AF23234554
:0603D60082239003367340
:1003DC00BB010689828A83E0225002E722BBFE021F
:0903EC00E32289828A83E4932252
:1003F500BB010CE58229F582E5833AF583E02250BD
:1004050006E92582F8E622BBFE06E92582F8E22206
:0D041500E58229F582E5833AF583E4932220
:10042200BB010FF8E58229F582E5833AF583E028DE
:10043200F0225009C58229F8E58226F622BBFE0980
:10044200C58229F8E22582F222F8EA2583F583E9BA
:03045200932822CA
:10045500F8BB010DE58229F582E5833AF583E8F0DD
:10046500225006E92582C8F622BBFE05E92582C889
:02047500F22271
:10047700C5F0F8A3E028F0C5F0F8E5821582700210
:060487001583E038F022AD
:100DA500C2D5E830E70FB2D5E4C39BFBE49AFAE479
:100DB50099F9E498F8EC30E717B2D5120DDB120477
:100DC500DFE4C39BFBE49AFAE499F9E498F880031D
:100DD5001204DF30D50DE4C39FFFE49EFEE49DFDC4
:040DE500E49CFC226C
:10048D00E493FC740193FD740293FE740393FF22B5
:06049D008A838982E473EA
:100B4C00020F19E493A3F8E493A34003F68001F297
:100B5C0008DFF48029E493A3F85407240CC8C333AA
:100B6C00C4540F4420C8834004F456800146F6DF79
:100B7C00E4800B0102040810204080900CBBE47E42
:100B8C00019360BCA3FF543F30E509541FFEE4936E
:100B9C00A360010ECF54C025E060A840B8E493A335
:100BAC00FAE493A3F8E493A3C8C582C8CAC583CA60
:100BBC00F0A3C8C582C8CAC583CADFE9DEE780BE18
:010D180000DA
:1004A30075F008758200EF2FFFEE33FECD33CDCC10
:1004B30033CCC58233C5829BED9AEC99E582984093
:1004C3000CF582EE9BFEED9AFDEC99FC0FD5F0D670
:1004D300E4CEFBE4CDFAE4CCF9A88222B800C1B99A
:1004E3000059BA002DEC8BF084CFCECDFCE5F0CBD8
:1004F300F97818EF2FFFEE33FEED33FDEC33FCEB11
:1005030033FB10D703994004EB99FB0FD8E5E4F9CB
:10051300FA227818EF2FFFEE33FEED33FDEC33FCB8
:10052300C933C910D7059BE99A4007EC9BFCE99AAC
:10053300F90FD8E0E4C9FAE4CCFB2275F010EF2FF1
:10054300FFEE33FEED33FDCC33CCC833C810D707F1
:100553009BEC9AE899400AED9BFDEC9AFCE899F82C
:0E0563000FD5F0DAE4CDFBE4CCFAE4C8F922BF
:00000001FF
